:100000000C9475000C949D000C949D000C949D0024
:100010000C949D000C949D000C949D000C949D00EC
:100020000C949D000C949D000C949D000C949D00DC
:100030000C949D000C949D000C949D000C949D00CC
:100040000C9443090C949D000C94B3090C948D09F5
:100050000C949D000C949D000C949D000C949D00AC
:100060000C949D000C949D00000020410000C842AB
:1000700000401C4620BCBE4CCA1B0E5AAEC59D7427
:10008000CDCCCC3D0AD7233C17B7D13877CC2B3217
:100090009595E6241FB14F0A0000000800020100F8
:1000A0000003040700000000000000000000000042
:1000B000250028002B0000000000240027002A0053
:1000C00004040404040404040202020202020303FE
:1000D0000303030301020408102040800102040806
:1000E00010200102040810203E0C11241FBECFEF87
:1000F000D8E0DEBFCDBF22E0AAE6B1E001C01D928C
:10010000A431B207E1F711E0A0E0B1E0E4E0F1E2F0
:1001100002C005900D92AA36B107D9F710E0C5E7E5
:10012000D0E004C02197FE010E94880EC437D10799
:10013000C9F70E94E5090C9480100C940000AF925E
:10014000BF92CF92DF92EF92FF920F931F93CF93C4
:10015000DF936C017B018B01040F151FEB015E0126
:10016000AE18BF08C017D10759F06991D601ED91BB
:10017000FC910190F081E02DC6010995892B79F75A
:10018000C501DF91CF911F910F91FF90EF90DF900C
:10019000CF90BF90AF900895CF93DF93FC0144813F
:1001A00055816081718183E791E00E949F00EC019D
:1001B00042E050E068E171E083E791E00E949F0037
:1001C0008C0F9D1FDF91CF910895FC01538D448DBD
:1001D000252F30E0842F90E0821B930B541710F0F2
:1001E000CF96089501970895FC01918D828D9817FF
:1001F00061F0A28DAE0FBF2FB11D5D968C91928DD7
:100200009F5F9F73928F90E008958FEF9FEF089507
:100210002FB7F89480916F0190917001A0917101B6
:10022000B09172012FBF80937B0190937C01A093CA
:100230007D01B0937E0183E791E00E94F40097FF77
:1002400026C02FB7F89480916F0190917001A09112
:100250007101B09172012FBF40917B0150917C01DF
:1002600060917D0170917E01841B950BA60BB70BED
:1002700040917701509178016091790170917A01F4
:1002800084179507A607B707B0F28FEF9FEF089581
:10029000FC01918D828D981731F0828DE80FF11D50
:1002A000858D90E008958FEF9FEF0895FC01918D6B
:1002B000228D892F90E0805C9F4F821B91098F7364
:1002C0009927089583E791E00E94560121E0892B48
:1002D00009F420E0822F089580E090E0892B29F036
:1002E0000E94620181110C9400000895FC01A48D0C
:1002F000A80FB92FB11DA35ABF4F2C91848D90E048
:1003000001968F739927848FA689B7892C93A0892A
:10031000B1898C91837080648C93938D848D9813B4
:1003200006C00288F389E02D80818F7D8083089547
:10033000EF92FF920F931F93CF93DF93EC0181E035
:10034000888F9B8D8C8D98131AC0E889F9898081DC
:1003500085FF15C09FB7F894EE89FF896083E8890F
:10036000F98980818370806480839FBF81E090E001
:10037000DF91CF911F910F91FF90EF900895F62E8E
:100380000B8D10E00F5F1F4F0F731127E02E8C8D28
:100390008E110CC00FB607FCFACFE889F98980816D
:1003A00085FFF5CFCE010E947601F1CFEB8DEC0FEA
:1003B000FD2FF11DE35AFF4FF0829FB7F8940B8F8A
:1003C000EA89FB8980818062CFCFCF93DF93EC01F4
:1003D000888D8823B9F0AA89BB89E889F9898C912D
:1003E00085FD03C0808186FD0DC00FB607FCF7CFE9
:1003F0008C9185FFF2CF808185FFEDCFCE010E94E9
:100400007601E9CFDF91CF91089590E0FC01E856A5
:10041000FF4F2491FC01EC52FF4F3491FC01E0545A
:10042000FF4FE491EE23C9F0222339F0233001F18C
:10043000A8F4213019F1223029F1F0E0EE0FFF1F6E
:10044000E455FF4FA591B4918FB7F894EC916111E9
:1004500026C030953E233C938FBF08952730A9F0E6
:100460002830C9F0243049F7809180008F7D03C087
:10047000809180008F7780938000DFCF84B58F7765
:1004800084BDDBCF84B58F7DFBCF8091B0008F77AB
:100490008093B000D2CF8091B0008F7DF9CF3E2BFA
:1004A000DACF982F80336CF08A3324F08F3524F024
:1004B0008B3724F481E0089581341CF081E09B3572
:1004C0000CF080E00895FC018685811114C0A1859F
:1004D000B285838594852FEF3FEFA817B90730F4D5
:1004E000CD010196928781872C9130E037FD20E085
:1004F000258781E08687858508951F93CF93DF93B5
:10050000EC01162F0E946302811306C01E8681E053
:10051000DF91CF911F91089580E0FACF0F931F9341
:10052000CF93DF938C01EB018991882369F0C80197
:100530000E946302882379F0FE013197908198131D
:100540000DC0F8011686F0CF90E080E0DF91CF91EA
:100550001F910F91089582E090E0F8CF83E090E042
:10056000F5CFCF93DF93EC01CE010E9463028B3075
:100570004CF489305CF4882359F081E0888790E05E
:1005800080E00BC08D3011F08032B9F71E86ECCFC1
:100590008885811105C081E090E0DF91CF910895B9
:1005A00082E090E0FACFFC0124813581A9014F5F00
:1005B0005F4F868197814817590748F4828193815C
:1005C00055834483FC01E20FF31F6083089501907B
:1005D000F081E02D81E0808708959F92AF92BF92D5
:1005E000CF92DF92EF92FF920F931F93CF93DF93FF
:1005F00000D000D01F92CDB7DEB78C010E946302FD
:10060000D82ED8011E961C92F12CE12C60EFC62E3C
:10061000C8010E946302F8011686D81609F4B4C016
:10062000811113C082E090E00F900F900F900F9017
:100630000F90DF91CF911F910F91FF90EF90DF907E
:10064000CF90BF90AF909F9008958C3509F09AC0DD
:10065000C8010E946302882329F3EBE1F1E08537AA
:1006600009F084C0D8011E961C9254E0952EB12C3E
:10067000A12CC8010E9463028823A1F2813434F4C2
:100680008053803130F083E090E0CECF8F7D875370
:10069000F8CF44E0AA0CBB1C4A95E1F7A82AF80160
:1006A00016869A949110E5CFC501985D8115944006
:1006B00020F47501F3E0FF22ABCFC5019C5D8115ED
:1006C0009440A8F483E0B822B701762F6627770F0D
:1006D000770F6A297B2990E080E0019660387105E8
:1006E0008105910540F4C8010E94D30291CFB50164
:1006F00090E080E0F3CF1982262F2F7320682A83A1
:1007000026E096958795779567952A95D1F760327B
:10071000710580F4606C6B835E01A4E0AA0EB11CCD
:10072000D5016E915D01662309F472CFC8010E9464
:10073000D302F6CF262F2F7320682B8386E0769581
:1007400067958A95E1F76031710538F4606E6C83C6
:100750005E01B5E0AB0EB11CE3CF60686C83CD8267
:100760005E01E6E0AE0EB11CDBCF3296908199239C
:1007700009F489CF8913F9CF8181882309F483CFC4
:10078000F8011686682FAFCF0190F081E02D8085AB
:10079000882319F084E090E047CF90E080E044CFD8
:1007A0004F925F926F927F928F929F92AF92BF9281
:1007B000CF92DF92EF92FF920F931F93CF93DF932D
:1007C000EC018B0188818B32C9F18D32C1F5219604
:1007D000FF24F394888190ED980F9A3018F08E32B0
:1007E00009F04DC160E070E0CB01FE012191A0ED68
:1007F0008A2E820E39E0381520F16A3949E97407EA
:10080000840749E1940738F5AAE0B0E09B01AC0108
:100810000E94DA0D912CB12CA12C240135014094B9
:10082000509460947094461657066806790698F0BE
:10083000680D791D8A1D9B1DEF01D7CF2196F12CE4
:10084000C9CF211108C0FF20F1F161307105810588
:1008500050E89507A0F0E12CEAE08E2E912CA12C17
:10086000B12C61157105F0E88F079105C0F1A50164
:1008700094010E94660ECA01B901E394F2CFF80117
:10088000248120782A6024839B01AC018827992742
:10089000DC01821B930BA40BB50B80839183A28395
:1008A000B3838F2DDF91CF911F910F91FF90EF9028
:1008B000DF90CF90BF90AF909F908F907F906F9080
:1008C0005F904F900895F801248120782860248358
:1008D0006083718382839383FF24F394E2CFFE01CC
:1008E000299130ED320F3A3010F4E394F8CF2E32E4
:1008F000F1F4EF012196FE012196208150EDD52ED5
:10090000D20E29E02D1598F06C3C3CEC73073CE0CE
:100910008307910580F7AAE0B0E09B01AC010E943B
:10092000DA0D6D0D711D811D911DEA94E4CF2081BA
:100930002F7DD0E0C0E0253409F05DC021812D324B
:10094000D9F53296CC24C394DF01D0E0C0E02E2D3F
:100950000E2C000C330B4AE0B42EFD01DD9040ED6F
:100960004D0D4A3008F042C0BC9EA001BD9E500D06
:100970001124CD2DDD0CDD0BE097C40FD51FAE018A
:10098000420F531F4732510544F3F8018481CC20B4
:10099000D1F040E050E060E070E8F11003C040E0CA
:1009A00050E0BA0180788C60F801848340835183E1
:1009B00062837383FC2C75CF2B3219F03196C12CD6
:1009C000C3CF3296FCCF40E050E060E87FEFF110FB
:1009D00004C040E050E060E87FE780788C60F80178
:1009E0008483408351836283738376CFCC2019F054
:1009F000D195C195D1092081211141C0CE0DD11DC4
:100A0000E7FCDA950E94A50C1C161D0604F5E12CE6
:100A1000C0FF0CC024E0E29EF0011124E859FF4F12
:100A200025913591459154910E94060DD595C79514
:100A3000E394209769F7F1109058F8012481207809
:100A40002C602483608371838283938345CFD19507
:100A5000C195D109E12C209771F3C0FF0CC044E08F
:100A6000E49EF0011124E058FF4F25913591459106
:100A700054910E94060DD595C795E394ECCFF12CC7
:100A800010CFCF92DF92EF92FF92CF93DF9300D0FF
:100A900000D01F92CDB7DEB7FC01892B39F08481DD
:100AA0008F778630B9F028F4843088F590E080E0C4
:100AB00013C08A30E9F08C30B9F18830B9F7808101
:100AC0009181A281B381811520E89207A105B1052A
:100AD00068F702C0808190E00F900F900F900F9008
:100AE0000F90DF91CF91FF90EF90DF90CF9008951E
:100AF00080819181A281B381AC01BD0150586F4FBB
:100B00007F4F411551056140710580F6E5CF808129
:100B100091811D82BE016F5F7F4F0E94D003CE0185
:100B200001960E944105D8CFC080D180E280F38039
:100B300020E030E040E057ECC701B6010E94610EB2
:100B400087FDB4CF20E03EEF4FEF56E4C701B6017A
:100B50000E94A00C18160CF4A9CFC701B6010E9480
:100B60002B0ECB01B9CFCF93DF93DC01EB01EC81EE
:100B7000FD818A819B810896E817F90740F481E09E
:100B80008887F0E0E0E0CF01DF91CF9108953897BA
:100B9000FD83EC833097B9F31296CD91DC911397D6
:100BA000209791F0CF018C1B9D0B23E095958795A5
:100BB0002A95E1F78D831396FC93EE931297158295
:100BC000148217821682DFCF1196FC93EE93F3CF37
:100BD000EF92FF920F931F93CF93DF937C01DC0181
:100BE00012962D913C911397ED91FC91AB01420F20
:100BF000531FEF01C60FD71FC217D307A0F4888178
:100C000081110BC0E901CF014C175D0751F009912B
:100C1000DC011D91CD010117B9F381918111FDCF47
:100C2000E8CF309751F4620F731FCB010196F701A3
:100C300093838283DB011C92F901CF01DF91CF9175
:100C40001F910F91FF90EF900895CF93DF9361155F
:100C50007105A1F1DC018D919C91009789F1EC0166
:100C6000EE81FF81DB010D900020E9F71197A61BB3
:100C7000B70B30E020E0309749F0EF0109900020F9
:100C8000E9F79E01215031092E1B3F0B2A173B0724
:100C900051F4DB01260F371F2A173B0789F05D91BE
:100CA00041915417C9F3FC012581222339F0F8E062
:100CB0002F0290011124820F931FCFCF90E080E08C
:100CC000DF91CF9108959F92AF92BF92CF92DF9222
:100CD000EF92FF920F931F93CF93DF93EC017B0171
:100CE000D42E0E94B1028C01892B09F052C0CE0192
:100CF0000E946302863609F455C194F5873229F0C3
:100D00008B35D1F1823209F056C1E881F9818281B7
:100D100093819B838A838481958122813381821B85
:100D2000930B9F838E831D821C82892B11F481E09B
:100D30008087CE010E94ED028C01892B51F5AC8099
:100D4000BD80B501888199810E94E805F701248161
:100D500020782560248391838083B382A28219C086
:100D6000843709F408C18B3709F453C08E3609F073
:100D700022C167E371E008C1F70184818078806453
:100D800084831182108213821282D1100FC005E079
:100D900010E0C801DF91CF911F910F91FF90EF906C
:100DA000DF90CF90BF90AF909F9008951E86CE01A8
:100DB0000E94B102009709F02DC16DE5CE010E949D
:100DC0007D028111E6CFDA946F857889C7010E9490
:100DD000B305009709F46EC04D2DBC01CE010E94F1
:100DE0006306009709F016C1CE010E94B102009778
:100DF00009F010C16DE5CE010E947D028111C9CFBD
:100E00006CE2CE010E947D028111DECF03E010E092
:100E1000C0CFF70184818078806284831182108240
:100E200013821282DD2009F4B2CF1E86CE010E9409
:100E3000B102009709F0EEC06DE7CE010E947D027D
:100E40008111A7CFBB24B394DA94E881F981828120
:100E500093819B838A838481958122813381821B44
:100E6000930B9F838E831D821C82892B09F4B0868D
:100E7000CE010E946302873201F18232F1F0CE018D
:100E80000E946302182F0E945102882309F4BECFEA
:100E90001E86612FCE010E94D302CE010E94630202
:100EA000182F0E9451028111F3CFE881F9818085CA
:100EB000882351F004E010E06CCFCE010E94ED02D7
:100EC0008C01892B09F065CFCE010E94B1028C0103
:100ED000892B09F05ECF6AE3CE010E947D02882350
:100EE00009F494CFEA81FB818C819D81E80FF91F81
:100EF00010820C811D816A817B81C7010E942506B9
:100F0000BC01892BA1F4B801888199810E94E80570
:100F10008C016F857889C7010E94B305FC01892B7C
:100F200049F284818068848317830683BF014D2D35
:100F3000CE010E9463068C01892B09F02ACFCE01D5
:100F40000E94B1028C01892B09F023CF6DE7CE01FD
:100F50000E947D0281111DCF6CE2CE010E947D02B4
:100F6000882309F453CFCE010E94B1028C01892B52
:100F700009F46BCF0ECFF70184818078866084837B
:100F800081E080836CE271E0CE01DF91CF911F910F
:100F90000F91FF90EF90DF90CF90BF90AF909F9018
:100FA0000C948E02F701848180788660848310829D
:100FB00061E371E0E9CFCE010E9463025E01F1E1DD
:100FC000AF0EB11CD12C9A2CCB2C803374F08A3309
:100FD00074F49FE3D91699F01E86D394F50181939A
:100FE0005F01CE010E946302F0CF8B3291F393ED4B
:100FF000980F923070F3982F9F7D953451F3CD0D5B
:10100000D11D198AB701892D9C2D0E94D003811111
:10101000C0CEFCCE8C01BDCEFC01248125FF04C0D6
:10102000009711F00C94250690E080E00895CF938E
:10103000DF93EC0188819981009711F00E942A0FBB
:10104000198218821D821C821B821A82DF91CF9125
:101050000895FC0180819181009711F00C942A0F72
:1010600008950F931F93CF93DF93EC0188819981AB
:10107000009759F02A813B812617370730F081E02D
:10108000DF91CF911F910F9108958B016F5F7F4F7B
:101090000E94B30F009759F0998388831B830A83BA
:1010A0002C813D81232B59F7FC011082E8CF80E091
:1010B000E7CFEF92FF920F931F93CF93DF936115CA
:1010C000710541F480E0DF91CF911F910F91FF9066
:1010D000EF90089541155105B1F07B01EC010C81B1
:1010E0001D81040F151FB8010E943108882351F398
:1010F000288139818C819D81B701820F931F0E94C5
:1011000079101D830C8381E0DECFCF93DF93EC0158
:10111000FB0101900020E9F73197AF01461B570B07
:101120000E945908811103C0CE010E941708CE0108
:10113000DF91CF910895CF93DF9300D0CDB7DEB785
:1011400069831A8241E050E0BE016F5F7F4F0E94C9
:1011500059080F900F90DF91CF910895EF92FF9271
:101160000F931F93CF93DF93EC017B018A01BA01A8
:101170000E94310881110BC0CE010E941708CE01D8
:10118000DF91CF911F910F91FF90EF9008951D83F4
:101190000C83B701888199810E947910F0CFEF927A
:1011A000FF920F931F93CF93DF93CDB7DEB7629774
:1011B0000FB6F894DEBF0FBECDBF8C01CB01F80196
:1011C0001182108213821282158214824AE09E01DB
:1011D0002F5F3F4F7901B9010E946B0CF70101901D
:1011E0000020E9F73197AF014E195F09B701C80137
:1011F0000E94AE0862960FB6F894DEBF0FBECDBF58
:10120000DF91CF911F910F91FF90EF900895CF93B1
:10121000DF93EC01FB018617970749F0608171812C
:101220006115710541F0448155810E94AE08CE01DF
:10123000DF91CF9108950E941708F9CFFC01118228
:1012400010821382128215821482FB010190002009
:10125000E9F73197AF01461B570B0C94AE081F936B
:10126000CF93DF93EC01162F0E94C40D181739F0AD
:10127000612FCE01DF91CF911F910C94CC0DDF91A6
:10128000CF911F9108951F920F920FB60F921124C4
:101290002F933F938F939F93AF93BF9380916F0151
:1012A00090917001A0917101B091720130916E0125
:1012B00023E0230F2D3758F50196A11DB11D209372
:1012C0006E0180936F0190937001A0937101B093B0
:1012D000720180916A0190916B01A0916C01B091B3
:1012E0006D010196A11DB11D80936A0190936B0160
:1012F000A0936C01B0936D01BF91AF919F918F91BD
:101300003F912F910F900FBE0F901F90189526E8D8
:10131000230F0296A11DB11DD2CF1F920F920FB6BF
:101320000F9211242F933F934F935F936F937F936B
:101330008F939F93AF93BF93EF93FF9383E791E0D6
:101340000E947601FF91EF91BF91AF919F918F9194
:101350007F916F915F914F913F912F910F900FBEB1
:101360000F901F9018951F920F920FB60F92112495
:101370002F938F939F93EF93FF93E0918301F091CD
:1013800084018081E0918901F0918A0182FD1BC076
:10139000908180918C018F5F8F7320918D018217D6
:1013A00041F0E0918C01F0E0ED58FE4F958F809375
:1013B0008C01FF91EF919F918F912F910F900FBE14
:1013C0000F901F9018958081F4CFCF93DF93CDB706
:1013D000DEB7C258D1090FB6F894DEBF0FBECDBF3D
:1013E000789484B5826084BD84B5816084BD85B500
:1013F000826085BD85B5816085BD80916E0081600C
:1014000080936E00109281008091810082608093B1
:1014100081008091810081608093810080918000B3
:101420008160809380008091B10084608093B100DE
:101430008091B00081608093B00080917A008460D8
:1014400080937A0080917A00826080937A00809104
:101450007A00816080937A0080917A00806880931E
:101460007A001092C100E0918301F091840182E042
:101470008083E0917F01F09180011082E0918101F1
:10148000F091820180E1808310928B01E0918701CD
:10149000F091880186E08083E0918501F0918601DA
:1014A000808180618083E0918501F0918601808157
:1014B00088608083E0918501F09186018081806859
:1014C0008083E0918501F091860180818F7D80830A
:1014D00025E030E0F901EC52FF4F4491F901E0546E
:1014E000FF4F8491882399F090E0880F991FFC01A9
:1014F000EA54FF4FA591B491FC01E455FF4F85914B
:1015000094918FB7F894EC91E42BEC938FBF2F5FFD
:101510003F4F24313105F1F605E010E0C8010E948B
:10152000C40D813321F461E0802F0E940502C801BF
:101530000E94C40D803321F460E0802F0E940502D8
:101540000F5F1F4F0431110549F722E5E22EF12C00
:10155000EC0EFD1E8AE0E80EF11C82E5C82ED12CAF
:10156000CC0EDD1E8FEFC81AD80A02E510E00C0F72
:101570001D1F065F1F4F90E0892E90E0992E83E794
:1015800091E00E945601181619060CF007C16BE293
:1015900071E0CE0183589F4F0E941E09E9961FAE4D
:1015A0001EAEE997EB961FAE1EAEEB97ED961FAE03
:1015B0001EAEED9750E040E06BE271E0CE0189583D
:1015C0009F4F0E94AE080E94080197FD0AC08A3012
:1015D000910539F0682FCE0189589F4F0E949B08D2
:1015E000F2CF80E094E00E948E0E9C013C5F009759
:1015F00011F430E020E065969FAF8EAF6597679657
:101600009FAF8EAF679769963FAF2EAF69976B9686
:101610003FAF2EAF6B97A1961FAEA197E9962EAD67
:101620003FADE997ED968EAD9FADED97820F931F7D
:101630006C961FAE6C97AB96DFAECEAEAB9748E024
:10164000FE01E759FF4FDE01AF59BF4F01900D92E8
:101650004A95E1F748E0FE01EF59FF4FDE01119690
:1016600001900D924A95E1F719863B872A879D875D
:101670008C871F86D98AC88A4AE0B801CE010196B4
:101680000E9463066CE371E0C8010E940C08892B7C
:1016900009F490C063E471E0C8010E940C08892B32
:1016A00009F488C06CE371E0C8010E940C080E9434
:1016B0004105782E692E63E471E0C8010E940C0890
:1016C0000E9441055C01682F872D0E94050260E39E
:1016D000AB2809F061E3872D962D0E942F09872DF5
:1016E000962D0E94C40D582E672D762DCE018F5851
:1016F0009F4F0E94CF086AE471E0CE0101960E94DC
:101700001E09E7964EAD5FADE797E3966EAD7FADF0
:10171000E397CE0101960E945908811104C0CE01C1
:1017200001960E94170865E571E0CE0101960E94BE
:1017300085085C01652DC5010E949B08811103C0CD
:10174000C5010E94170860E671E0C5010E94850886
:10175000BC01CE0183589F4F0E940709CE0101961C
:101760000E942908CE018F589F4F0E942908CE0160
:1017700083589F4F0E94CC0065968EAD9FAD6597B4
:10178000009711F00E942A0FCE0189589F4F0E94A6
:101790002908CE0183589F4F0E9429088114910483
:1017A00009F4EDCE0E946201882309F4D6CE0E948E
:1017B0000000D3CE6CE371E0C7010E940C08892BB6
:1017C000E1F450E040E06BE271E0CE0183589F4FBE
:1017D0000E94AE08B12CA12CC5010E94C40D682F37
:1017E000CE0183589F4F0E949B088FEFA81AB80A1A
:1017F00084E1A816B10481F7BACF62E671E0C701AF
:101800000E940C08892BE9F26CE371E0C7010E9489
:101810000C080E9441055C0162E671E0C7010E946C
:101820000C080E944105C5010E94C40D782EB50127
:10183000CE018F589F4F0E94CF086AE471E0CE011D
:1018400001960E941E09E7964EAD5FADE797E396BD
:101850006EAD7FADE397CE0101960E9459088111CC
:1018600004C0CE0101960E94170865E571E0CE0123
:1018700001960E9485085C01672D5DCFE3E7F1E0EA
:101880001382128288EE93E0A0E0B0E08483958317
:10189000A683B7838AE091E09183808385EC90E012
:1018A0009587848784EC90E09787868780EC90E02A
:1018B000918B808B81EC90E0938B828B82EC90E01B
:1018C000958B848B86EC90E0978B868B118E128E95
:1018D000138E148E0895BB274A3031F4992322F4D5
:1018E000BDE2909581959F4F0C94770CBB27FB012F
:1018F0005527AA27880F991FAA1FA41710F0A41B09
:1019000083955051B9F7A05DAA3308F0A95DA19362
:10191000009779F7B111B1931192CB010C94900C0F
:10192000DC01FC01672F71917723E1F7329704C046
:101930007C916D9370836291AE17BF07C8F30895D1
:101940000E94E20C08F481E00895E89409C097FB36
:101950003EF490958095709561957F4F8F4F9F4F86
:101960009923A9F0F92F96E9BB279395F6958795CA
:1019700077956795B795F111F8CFFAF4BB0F11F48D
:1019800060FF1BC06F5F7F4F8F4F9F4F16C0882334
:1019900011F096E911C0772321F09EE8872F762F6A
:1019A00005C0662371F096E8862F70E060E02AF0AB
:1019B0009A95660F771F881FDAF7880F9695879597
:1019C00097F90895990F0008550FAA0BE0E8FEEF6C
:1019D00016161706E807F907C0F012161306E407F3
:1019E000F50798F0621B730B840B950B39F40A26EC
:1019F00061F0232B242B252B21F408950A2609F4CA
:101A0000A140A6958FEF811D811D08950E94190D9B
:101A10000C948A0D0E947C0D38F00E94830D20F0FA
:101A2000952311F00C94730D0C94790D11240C94E2
:101A3000BE0D0E949B0D70F3959FC1F3950F50E072
:101A4000551F629FF001729FBB27F00DB11D639F70
:101A5000AA27F00DB11DAA1F649F6627B00DA11D16
:101A6000661F829F2227B00DA11D621F739FB00DBC
:101A7000A11D621F839FA00D611D221F749F33272C
:101A8000A00D611D231F849F600D211D822F762FC5
:101A90006A2F11249F5750409AF0F1F088234AF0A2
:101AA000EE0FFF1FBB1F661F771F881F915050400E
:101AB000A9F79E3F510580F00C94730D0C94BE0D58
:101AC0005F3FE4F3983ED4F3869577956795B79595
:101AD000F795E7959F5FC1F7FE2B880F911D9695AF
:101AE000879597F9089597F99F6780E870E060E01F
:101AF00008959FEF80EC089500240A9416161706A7
:101B000018060906089500240A94121613061406EE
:101B100005060895092E0394000C11F4882352F051
:101B2000BB0F40F4BF2B11F460FF04C06F5F7F4F09
:101B30008F4F9F4F089557FD9058440F551F59F0F0
:101B40005F3F71F04795880F97FB991F61F09F3FAA
:101B500079F087950895121613061406551FF2CFD3
:101B60004695F1DF08C0161617061806991FF1CF23
:101B700086957105610508940895E894BB2766274A
:101B80007727CB0197F90895F999FECF92BD81BDD2
:101B9000F89A992780B50895262FF999FECF1FBA94
:101BA00092BD81BD20BD0FB6F894FA9AF99A0FBE86
:101BB000019608950E941C0EA59F900DB49F900D54
:101BC000A49F800D911D112408952F923F924F9252
:101BD0005F926F927F928F929F92AF92BF92CF92BD
:101BE000DF92EF92FF920F931F93CF93DF93CDB7C6
:101BF000DEB7CA1BDB0B0FB6F894DEBF0FBECDBF3E
:101C000009942A88398848885F846E847D848C840E
:101C10009B84AA84B984C884DF80EE80FD800C8117
:101C20001B81AA81B981CE0FD11D0FB6F894DEBFFA
:101C30000FBECDBFED010895A29FB001B39FC001BB
:101C4000A39F700D811D1124911DB29F700D811DE8
:101C50001124911D08950E94320E6894B1110C94C4
:101C6000BE0D08950E94A30D88F09F5798F0B92FDC
:101C70009927B751B0F0E1F0660F771F881F991FC1
:101C80001AF0BA95C9F714C0B13091F00E94BD0D99
:101C9000B1E008950C94BD0D672F782F8827B85FA9
:101CA00039F0B93FCCF3869577956795B395D9F719
:101CB0003EF490958095709561957F4F8F4F9F4F23
:101CC00008950E94E20C08F48FEF0895A1E21A2E05
:101CD000AA1BBB1BFD010DC0AA1FBB1FEE1FFF1FD0
:101CE000A217B307E407F50720F0A21BB30BE40B20
:101CF000F50B661F771F881F991F1A9469F7609567
:101D00007095809590959B01AC01BD01CF01089520
:101D1000EE0FFF1F0590F491E02D09940F931F9390
:101D2000CF93DF938230910510F482E090E0E09150
:101D30001202F091130230E020E0B0E0A0E0309712
:101D400099F42115310509F44AC0281B390B2430B8
:101D50003105D8F58A819B816115710589F1FB01F7
:101D600093838283FE0111C04081518102811381DE
:101D700048175907E0F04817590799F4109761F090
:101D800012960C93129713961C933296CF01DF9103
:101D9000CF911F910F910895009312021093130297
:101DA000F4CF2115310551F04217530738F0A9013E
:101DB000DB019A01BD01DF01F801C1CFEF01F9CFCD
:101DC0009093130280931202CDCFFE01E20FF31F16
:101DD000819391932250310939832883D7CF209161
:101DE000100230911102232B41F420910201309115
:101DF00003013093110220931002209100013091D1
:101E000001012115310541F42DB73EB74091040180
:101E100050910501241B350BE0911002F091110245
:101E2000E217F307A0F42E1B3F0B2817390778F0B1
:101E3000AC014E5F5F4F2417350748F04E0F5F1F10
:101E40005093110240931002819391939FCFF0E041
:101E5000E0E09CCFCF93DF930097E9F0FC0132974D
:101E600013821282A0911202B0911302ED0130E0B0
:101E700020E01097A1F420813181820F931F2091DF
:101E80001002309111022817390709F061C0F09350
:101E90001102E0931002DF91CF910895EA01CE176D
:101EA000DF07E8F54A815B819E0141155105B1F7D5
:101EB000E901FB83EA8349915991C40FD51FEC17BF
:101EC000FD0761F4808191810296840F951FE901DD
:101ED00099838883828193819B838A83F0E0E0E009
:101EE00012968D919C9113970097B9F52D913C9185
:101EF0001197CD010296820F931F2091100230910D
:101F000011022817390739F6309751F5109213024C
:101F100010921202B0931102A0931002BCCFD3838F
:101F2000C28340815181840F951FC817D90761F47E
:101F30004E5F5F4F88819981480F591F51834083BD
:101F40008A819B81938382832115310509F0B0CF6B
:101F5000F0931302E09312029ECFFD01DC01C0CF8B
:101F600013821282D7CFB0E0A0E0E9EBFFE00C943F
:101F7000E70D8C01009751F4CB010E948E0E8C016D
:101F8000C801CDB7DEB7E0E10C94030EFC01E60F0B
:101F9000F71F9C0122503109E217F30708F49DC096
:101FA000D901CD91DC911197C617D70798F0C530AC
:101FB000D10530F3CE0104978617970708F3C61BA7
:101FC000D70B2297C193D1936D937C93CF010E943D
:101FD0002A0FD6CF5B01AC1ABD0A4C018C0E9D1E98
:101FE000A0911202B0911302512C412CF12CE12C42
:101FF000109731F580911002909111028815990582
:1020000009F05CC04616570608F058C080910001E0
:1020100090910101009741F48DB79EB74091040162
:1020200050910501841B950BE817F90708F055C07E
:10203000F0931102E0931002F90171836083A0CF45
:102040008D919C91119712966C90129713967C909B
:102050001397A815B90559F56C0142E0C40ED11CBF
:10206000CA14DB0420F1AC014A195B09DA011296AB
:10207000159780F06282738251834083D9016D93FA
:102080007C93E114F10471F0D7011396FC93EE9365
:10209000129776CF22968C0F9D1FF9019183808332
:1020A000F301EFCFF0931302E093120269CF4816C9
:1020B000590608F42C017D01D3019ACFCB010E946F
:1020C0008E0E7C01009749F0AE01B8010E9470109D
:1020D000C8010E942A0F870153CF10E000E050CFC3
:1020E000FB01DC0102C001900D9241505040D8F735
:1020F0000895FB01DC0101900D920020E1F70895A5
:04210000F894FFCF81
:102104000000140280000000000098019F00E50018
:10211400E5015601F40048010D0A002F2F22225C2C
:102124005C6208660C6E0A720D740900747275653F
:102134000066616C7365006E756C6C0070696E4E40
:10214400756D007365744D6F64007B2270696E4E0B
:10215400756D223A002C227365744D6F64223A0027
:0A2164007D006765744D6F64000094
:00000001FF
